{"abi":[{"type":"constructor","inputs":[{"name":"_verifier","type":"address","internalType":"address"},{"name":"_orderBook","type":"address","internalType":"address"}],"stateMutability":"nonpayable"},{"type":"function","name":"orderBook","inputs":[],"outputs":[{"name":"","type":"address","internalType":"contract IOrderBook"}],"stateMutability":"view"},{"type":"function","name":"owner","inputs":[],"outputs":[{"name":"","type":"address","internalType":"address"}],"stateMutability":"view"},{"type":"function","name":"settle","inputs":[{"name":"pA","type":"uint256[2]","internalType":"uint256[2]"},{"name":"pB","type":"uint256[2][2]","internalType":"uint256[2][2]"},{"name":"pC","type":"uint256[2]","internalType":"uint256[2]"},{"name":"commitmentA","type":"bytes32","internalType":"bytes32"},{"name":"commitmentB","type":"bytes32","internalType":"bytes32"},{"name":"clearingPrice","type":"uint256","internalType":"uint256"}],"outputs":[],"stateMutability":"nonpayable"},{"type":"function","name":"settledPairs","inputs":[{"name":"","type":"bytes32","internalType":"bytes32"}],"outputs":[{"name":"","type":"bool","internalType":"bool"}],"stateMutability":"view"},{"type":"function","name":"usedProofs","inputs":[{"name":"","type":"bytes32","internalType":"bytes32"}],"outputs":[{"name":"","type":"bool","internalType":"bool"}],"stateMutability":"view"},{"type":"function","name":"verifier","inputs":[],"outputs":[{"name":"","type":"address","internalType":"contract IVerifier"}],"stateMutability":"view"},{"type":"event","name":"OrdersSettled","inputs":[{"name":"commitmentA","type":"bytes32","indexed":true,"internalType":"bytes32"},{"name":"commitmentB","type":"bytes32","indexed":true,"internalType":"bytes32"},{"name":"clearingPrice","type":"uint256","indexed":false,"internalType":"uint256"},{"name":"traderA","type":"address","indexed":false,"internalType":"address"},{"name":"traderB","type":"address","indexed":false,"internalType":"address"},{"name":"settledBlock","type":"uint256","indexed":false,"internalType":"uint256"}],"anonymous":false},{"type":"error","name":"CommitmentANotFound","inputs":[]},{"type":"error","name":"CommitmentBNotFound","inputs":[]},{"type":"error","name":"IdenticalCommitments","inputs":[]},{"type":"error","name":"PairAlreadySettled","inputs":[]},{"type":"error","name":"ProofAlreadyUsed","inputs":[]},{"type":"error","name":"ProofInvalid","inputs":[]},{"type":"error","name":"ReentrantCall","inputs":[]}],"bytecode":{"object":"0x60e060405260015f55348015610013575f80fd5b50604051610a5f380380610a5f83398101604081905261003291610068565b6001600160a01b039182166080521660a0523360c052610099565b80516001600160a01b0381168114610063575f80fd5b919050565b5f8060408385031215610079575f80fd5b6100828361004d565b91506100906020840161004d565b90509250929050565b60805160a05160c05161096d6100f25f395f61011b01525f818160c20152818161030b0152818161037b0152818161049f0152818161051201528181610597015261062a01525f818160690152610252015261096d5ff3fe608060405234801561000f575f80fd5b5060043610610060575f3560e01c80632b7ac3f3146100645780633b7704ec146100a8578063776af5ba146100bd5780637d0c743f146100e45780638da5cb5b14610116578063c30a0f251461013d575b5f80fd5b61008b7f000000000000000000000000000000000000000000000000000000000000000081565b6040516001600160a01b0390911681526020015b60405180910390f35b6100bb6100b63660046107a3565b61015f565b005b61008b7f000000000000000000000000000000000000000000000000000000000000000081565b6101066100f236600461080a565b60026020525f908152604090205460ff1681565b604051901515815260200161009f565b61008b7f000000000000000000000000000000000000000000000000000000000000000081565b61010661014b36600461080a565b60016020525f908152604090205460ff1681565b610167610700565b818303610187576040516346b162dd60e11b815260040160405180910390fd5b5f86868660405160200161019d9392919061084a565b60408051601f1981840301815291815281516020928301205f818152600190935291205490915060ff16156101e55760405163c9838a6560e01b815260040160405180910390fd5b5f6101f08585610728565b5f8181526002602052604090205490915060ff161561022257604051630d5030c360e41b815260040160405180910390fd5b604080516060810182528681526020810186905280820185905290516308a3cff560e11b81526001600160a01b037f000000000000000000000000000000000000000000000000000000000000000016906311479fea9061028d908c908c908c908790600401610871565b602060405180830381865afa1580156102a8573d5f803e3d5ffd5b505050506040513d601f19601f820116820180604052508101906102cc91906108c3565b6102e957604051631ff3747d60e21b815260040160405180910390fd5b60405163f023b81160e01b8152600481018790525f9081906001600160a01b037f0000000000000000000000000000000000000000000000000000000000000000169063f023b811906024016040805180830381865afa15801561034f573d5f803e3d5ffd5b505050506040513d601f19601f8201168201806040525081019061037391906108e9565b915091505f807f00000000000000000000000000000000000000000000000000000000000000006001600160a01b031663f023b8118a6040518263ffffffff1660e01b81526004016103c791815260200190565b6040805180830381865afa1580156103e1573d5f803e3d5ffd5b505050506040513d601f19601f8201168201806040525081019061040591906108e9565b90925090506001600160a01b0384166104315760405163aa88903160e01b815260040160405180910390fd5b6001600160a01b03821661045857604051638fd91e8760e01b815260040160405180910390fd5b5f878152600160208181526040808420805460ff1990811685179091558a85526002909252928390208054909116909117905551634365788160e11b8152600481018b90527f00000000000000000000000000000000000000000000000000000000000000006001600160a01b0316906386caf102906024015f604051808303815f87803b1580156104e8575f80fd5b505af11580156104fa573d5f803e3d5ffd5b5050604051634365788160e11b8152600481018c90527f00000000000000000000000000000000000000000000000000000000000000006001600160a01b031692506386caf10291506024015f604051808303815f87803b15801561055d575f80fd5b505af115801561056f573d5f803e3d5ffd5b50506040516334212c3d60e01b8152600481018d90526001600160a01b0385811660248301527f00000000000000000000000000000000000000000000000000000000000000001692506334212c3d91506044016020604051808303815f875af11580156105df573d5f803e3d5ffd5b505050506040513d601f19601f820116820180604052508101906106039190610920565b506040516334212c3d60e01b8152600481018a90526001600160a01b0385811660248301527f000000000000000000000000000000000000000000000000000000000000000016906334212c3d906044016020604051808303815f875af1158015610670573d5f803e3d5ffd5b505050506040513d601f19601f820116820180604052508101906106949190610920565b50604080518981526001600160a01b03868116602083015284168183015243606082015290518a918c917f83ad654a79d34017dbc69acf4a813d0ba28c586d028f3e9fe97a2cdfbcf7eaaa9181900360800190a3505050505050506106f860015f55565b505050505050565b60025f5403610722576040516306fda65d60e31b815260040160405180910390fd5b60025f55565b5f81831061075f5760408051602081018490529081018490526060016040516020818303038152906040528051906020012061078a565b6040805160208101859052908101839052606001604051602081830303815290604052805190602001205b90505b92915050565b806040810183101561078d575f80fd5b5f805f805f8061016087890312156107b9575f80fd5b6107c38888610793565b955060c08701888111156107d5575f80fd5b6040880195506107e58982610793565b9450506101008701359250610120870135915061014087013590509295509295509295565b5f6020828403121561081a575f80fd5b5035919050565b805f5b600281101561084457604080838637938401939190910190600101610824565b50505050565b610100810160408583376108616040830185610821565b60408360c0840137949350505050565b610160810160408683376108886040830186610821565b60408460c08401376101008201835f5b60038110156108b7578151835260209283019290910190600101610898565b50505095945050505050565b5f602082840312156108d3575f80fd5b815180151581146108e2575f80fd5b9392505050565b5f80604083850312156108fa575f80fd5b82516001600160a01b0381168114610910575f80fd5b6020939093015192949293505050565b5f60208284031215610930575f80fd5b505191905056fea2646970667358221220d18a1294be008ec13b778d845cbcb31d6dd9d7290491d41301f0e23cf2960d1464736f6c63430008180033","linkReferences":{}},"methodIdentifiers":{"orderBook()":"776af5ba","owner()":"8da5cb5b","settle(uint256[2],uint256[2][2],uint256[2],bytes32,bytes32,uint256)":"3b7704ec","settledPairs(bytes32)":"7d0c743f","usedProofs(bytes32)":"c30a0f25","verifier()":"2b7ac3f3"},"id":19}