{"abi":[{"type":"constructor","inputs":[{"name":"_settlement","type":"address","internalType":"address"}],"stateMutability":"nonpayable"},{"type":"function","name":"cancelCommitment","inputs":[{"name":"commitment","type":"bytes32","internalType":"bytes32"}],"outputs":[],"stateMutability":"nonpayable"},{"type":"function","name":"commitmentCount","inputs":[],"outputs":[{"name":"","type":"uint256","internalType":"uint256"}],"stateMutability":"view"},{"type":"function","name":"commitmentList","inputs":[{"name":"","type":"uint256","internalType":"uint256"}],"outputs":[{"name":"","type":"bytes32","internalType":"bytes32"}],"stateMutability":"view"},{"type":"function","name":"commitments","inputs":[{"name":"","type":"bytes32","internalType":"bytes32"}],"outputs":[{"name":"trader","type":"address","internalType":"address"},{"name":"escrowAmount","type":"uint256","internalType":"uint256"},{"name":"escrowToken","type":"address","internalType":"address"},{"name":"submittedBlock","type":"uint256","internalType":"uint256"},{"name":"status","type":"uint8","internalType":"enum OrderBook.OrderStatus"}],"stateMutability":"view"},{"type":"function","name":"getEscrow","inputs":[{"name":"commitment","type":"bytes32","internalType":"bytes32"}],"outputs":[{"name":"trader","type":"address","internalType":"address"},{"name":"amount","type":"uint256","internalType":"uint256"}],"stateMutability":"view"},{"type":"function","name":"getOpenCommitments","inputs":[],"outputs":[{"name":"","type":"bytes32[]","internalType":"bytes32[]"}],"stateMutability":"view"},{"type":"function","name":"markSettled","inputs":[{"name":"commitment","type":"bytes32","internalType":"bytes32"}],"outputs":[],"stateMutability":"nonpayable"},{"type":"function","name":"owner","inputs":[],"outputs":[{"name":"","type":"address","internalType":"address"}],"stateMutability":"view"},{"type":"function","name":"releaseEscrow","inputs":[{"name":"commitment","type":"bytes32","internalType":"bytes32"},{"name":"recipient","type":"address","internalType":"address payable"}],"outputs":[{"name":"amount","type":"uint256","internalType":"uint256"}],"stateMutability":"nonpayable"},{"type":"function","name":"setSettlement","inputs":[{"name":"_settlement","type":"address","internalType":"address"}],"outputs":[],"stateMutability":"nonpayable"},{"type":"function","name":"settlement","inputs":[],"outputs":[{"name":"","type":"address","internalType":"address"}],"stateMutability":"view"},{"type":"function","name":"statusOf","inputs":[{"name":"commitment","type":"bytes32","internalType":"bytes32"}],"outputs":[{"name":"","type":"uint8","internalType":"enum OrderBook.OrderStatus"}],"stateMutability":"view"},{"type":"function","name":"submitCommitment","inputs":[{"name":"commitment","type":"bytes32","internalType":"bytes32"}],"outputs":[],"stateMutability":"payable"},{"type":"event","name":"CommitmentCancelled","inputs":[{"name":"commitment","type":"bytes32","indexed":true,"internalType":"bytes32"},{"name":"trader","type":"address","indexed":true,"internalType":"address"}],"anonymous":false},{"type":"event","name":"CommitmentSettled","inputs":[{"name":"commitment","type":"bytes32","indexed":true,"internalType":"bytes32"},{"name":"trader","type":"address","indexed":true,"internalType":"address"}],"anonymous":false},{"type":"event","name":"CommitmentSubmitted","inputs":[{"name":"commitment","type":"bytes32","indexed":true,"internalType":"bytes32"},{"name":"trader","type":"address","indexed":true,"internalType":"address"},{"name":"blockNumber","type":"uint256","indexed":false,"internalType":"uint256"}],"anonymous":false},{"type":"event","name":"EscrowReleased","inputs":[{"name":"commitment","type":"bytes32","indexed":true,"internalType":"bytes32"},{"name":"recipient","type":"address","indexed":true,"internalType":"address"},{"name":"amount","type":"uint256","indexed":false,"internalType":"uint256"}],"anonymous":false},{"type":"event","name":"SettlementSet","inputs":[{"name":"settlement","type":"address","indexed":true,"internalType":"address"}],"anonymous":false},{"type":"error","name":"AlreadySettled","inputs":[]},{"type":"error","name":"CommitmentAlreadyExists","inputs":[]},{"type":"error","name":"CommitmentNotFound","inputs":[]},{"type":"error","name":"EscrowTransferFailed","inputs":[]},{"type":"error","name":"NotCancellable","inputs":[]},{"type":"error","name":"NotOwner","inputs":[]},{"type":"error","name":"NotSettlementContract","inputs":[]},{"type":"error","name":"NotTrader","inputs":[]},{"type":"error","name":"ReentrantCall","inputs":[]},{"type":"error","name":"SettlementAlreadySet","inputs":[]},{"type":"error","name":"ZeroAddress","inputs":[]}],"bytecode":{"object":"0x60a060405260015f55348015610013575f80fd5b50604051610daa380380610daa83398101604081905261003291610098565b336080526001600160a01b0381161561009257600180546001600160a81b0319166001600160a01b038316908117600160a01b179091556040517f9f266baf9d71b9257e2d4938694b1264393222f7d373cca75af0998bb5fcca99905f90a25b506100c5565b5f602082840312156100a8575f80fd5b81516001600160a01b03811681146100be575f80fd5b9392505050565b608051610cc66100e45f395f81816101da01526106fb0152610cc65ff3fe6080604052600436106100bf575f3560e01c80638f4e6f371161007c578063c44956d111610057578063c44956d11461025b578063c7df14e21461026f578063d78cfae8146102ad578063f023b811146102cc575f80fd5b80638f4e6f37146101fc5780639100ce1b1461021b578063bfc1c50c1461023a575f80fd5b806334212c3d146100c357806351160630146100f557806353f3eb8f1461012c578063839df9451461014157806386caf102146101aa5780638da5cb5b146101c9575b5f80fd5b3480156100ce575f80fd5b506100e26100dd366004610b1b565b610328565b6040519081526020015b60405180910390f35b348015610100575f80fd5b50600154610114906001600160a01b031681565b6040516001600160a01b0390911681526020016100ec565b61013f61013a366004610b49565b6104c1565b005b34801561014c575f80fd5b5061019961015b366004610b49565b600260208190525f9182526040909120805460018201549282015460038301546004909301546001600160a01b039283169493919092169160ff1685565b6040516100ec959493929190610b94565b3480156101b5575f80fd5b5061013f6101c4366004610b49565b61060d565b3480156101d4575f80fd5b506101147f000000000000000000000000000000000000000000000000000000000000000081565b348015610207575f80fd5b5061013f610216366004610bd1565b6106f0565b348015610226575f80fd5b5061013f610235366004610b49565b6107da565b348015610245575f80fd5b5061024e610945565b6040516100ec9190610bf3565b348015610266575f80fd5b506003546100e2565b34801561027a575f80fd5b506102a0610289366004610b49565b5f9081526002602052604090206004015460ff1690565b6040516100ec9190610c36565b3480156102b8575f80fd5b506100e26102c7366004610b49565b610ac0565b3480156102d7575f80fd5b506103096102e6366004610b49565b5f90815260026020526040902080546001909101546001600160a01b0390911691565b604080516001600160a01b0390931683526020830191909152016100ec565b5f610331610adf565b6001546001600160a01b0316331461035c57604051635147ec9b60e11b815260040160405180910390fd5b6001600160a01b0382166103835760405163d92e233d60e01b815260040160405180910390fd5b5f83815260026020526040902080546001600160a01b03166103b857604051635b34156960e11b815260040160405180910390fd5b600360048083015460ff16908111156103d3576103d3610b60565b146103f157604051635147ec9b60e11b815260040160405180910390fd5b6001810180545f918290556040519093506001600160a01b0385169084908381818185875af1925050503d805f8114610445576040519150601f19603f3d011682016040523d82523d5f602084013e61044a565b606091505b505090508061046c5760405163300eadc960e11b815260040160405180910390fd5b836001600160a01b0316857f3a9c1cd29cd3be251a72ce3c367c27dc1cb697ac4589965b76a83f9a25ca0710856040516104a891815260200190565b60405180910390a350506104bb60015f55565b92915050565b5f818152600260205260409020546001600160a01b0316156104f65760405163145718a760e01b815260040160405180910390fd5b6040805160a0810182523381523460208083019182525f838501818152436060860190815260016080870181815289855260029586905297909320865181546001600160a01b039182166001600160a01b031991821617835596518286015592519481018054959093169490951693909317905590516003830155925160048083018054949593949293909260ff191691849081111561059857610598610b60565b021790555050600380546001810182555f919091527fc2575a0e9e593c00f959f8c92f12db2869c3395a3b0502d05e2516446f71f85b0182905550604051438152339082907ff8f05d40bc4d4e9faea7feff0042a427e6885d114dfdea1db6f96f73088ef4ca9060200160405180910390a350565b6001546001600160a01b0316331461063857604051635147ec9b60e11b815260040160405180910390fd5b5f81815260026020526040902080546001600160a01b031661066d57604051635b34156960e11b815260040160405180910390fd5b600360048083015460ff169081111561068857610688610b60565b036106a55760405162560ff960e81b815260040160405180910390fd5b60048101805460ff1916600317905580546040516001600160a01b039091169083907ff052e4b832d488de4fd58e2cdc05ba326ea99dd206f858b02c5db5eddd0eebd5905f90a35050565b336001600160a01b037f00000000000000000000000000000000000000000000000000000000000000001614610739576040516330cd747160e01b815260040160405180910390fd5b600154600160a01b900460ff161561076457604051632584678960e01b815260040160405180910390fd5b6001600160a01b03811661078b5760405163d92e233d60e01b815260040160405180910390fd5b600180546001600160a81b0319166001600160a01b038316908117600160a01b179091556040517f9f266baf9d71b9257e2d4938694b1264393222f7d373cca75af0998bb5fcca99905f90a250565b6107e2610adf565b5f81815260026020526040902080546001600160a01b03163314610819576040516306b3d81160e41b815260040160405180910390fd5b600360048083015460ff169081111561083457610834610b60565b036108515760405162560ff960e81b815260040160405180910390fd5b60048181015460ff168181111561086a5761086a610b60565b03610888576040516367909b1560e01b815260040160405180910390fd5b6001810180545f918290556004808401805460ff19169091179055604051909190339083908381818185875af1925050503d805f81146108e3576040519150601f19603f3d011682016040523d82523d5f602084013e6108e8565b606091505b505090508061090a5760405163300eadc960e11b815260040160405180910390fd5b604051339085907faa04138f7abc264bbe9c856b9610410c76e59f82c90f3800fa6ffea6ab8ae94f905f90a350505061094260015f55565b50565b6003546060905f90815b818110156109c157600160025f6003848154811061096f5761096f610c44565b905f5260205f20015481526020019081526020015f206004015f9054906101000a900460ff1660048111156109a6576109a6610b60565b036109b957826109b581610c58565b9350505b60010161094f565b505f8267ffffffffffffffff8111156109dc576109dc610c7c565b604051908082528060200260200182016040528015610a05578160200160208202803683370190505b5090505f805b83811015610ab657600160025f60038481548110610a2b57610a2b610c44565b905f5260205f20015481526020019081526020015f206004015f9054906101000a900460ff166004811115610a6257610a62610b60565b03610aae5760038181548110610a7a57610a7a610c44565b905f5260205f200154838380610a8f90610c58565b945081518110610aa157610aa1610c44565b6020026020010181815250505b600101610a0b565b5090949350505050565b60038181548110610acf575f80fd5b5f91825260209091200154905081565b60025f5403610b01576040516306fda65d60e31b815260040160405180910390fd5b60025f55565b6001600160a01b0381168114610942575f80fd5b5f8060408385031215610b2c575f80fd5b823591506020830135610b3e81610b07565b809150509250929050565b5f60208284031215610b59575f80fd5b5035919050565b634e487b7160e01b5f52602160045260245ffd5b60058110610b9057634e487b7160e01b5f52602160045260245ffd5b9052565b6001600160a01b03868116825260208201869052841660408201526060810183905260a08101610bc76080830184610b74565b9695505050505050565b5f60208284031215610be1575f80fd5b8135610bec81610b07565b9392505050565b602080825282518282018190525f9190848201906040850190845b81811015610c2a57835183529284019291840191600101610c0e565b50909695505050505050565b602081016104bb8284610b74565b634e487b7160e01b5f52603260045260245ffd5b5f60018201610c7557634e487b7160e01b5f52601160045260245ffd5b5060010190565b634e487b7160e01b5f52604160045260245ffdfea2646970667358221220131f3acb9416f20c0c8d9bd248df967ad2a0254990cbc0812dd3f9fea0d43d3164736f6c63430008180033","linkReferences":{}},"methodIdentifiers":{"cancelCommitment(bytes32)":"9100ce1b","commitmentCount()":"c44956d1","commitmentList(uint256)":"d78cfae8","commitments(bytes32)":"839df945","getEscrow(bytes32)":"f023b811","getOpenCommitments()":"bfc1c50c","markSettled(bytes32)":"86caf102","owner()":"8da5cb5b","releaseEscrow(bytes32,address)":"34212c3d","setSettlement(address)":"8f4e6f37","settlement()":"51160630","statusOf(bytes32)":"c7df14e2","submitCommitment(bytes32)":"53f3eb8f"},"id":20}